:100000000C9486030C94AE030C94AE030C94AE03D4
:100010000C94AE030C94AE030C94AE030C94AE039C
:100020000C94AE030C94AE030C94AE030C94AE038C
:100030000C94AE030C94AE030C94AE030C94AE037C
:100040000C9444280C94AE030C94DA240C94B4243D
:100050000C94AE030C94AE030C94AE030C94AE035C
:100060000C94AE030C94AE037305840587058E05CE
:100070009105510C980577078E083A0A3D09230B24
:10008000BA0CBD0CC60CC40CCF0CCD0CD60CD90CC4
:10009000E00CE30CEA0CED0CF50CF80CFC0CFF0C7E
:1000A0007F05840587058E059105A50C03070508C6
:1000B000EC083A0A3D09230BBA0CBD0CC60CC40C63
:1000C000CF0CCD0CD60CD90CE00CE30CEA0CED0CEB
:1000D000F50CF80CFC0CFF0C0F1268120913091335
:1000E000B812091309130913F6212B226522AC2239
:1000F000F7223F238623A723460100FF0800053E81
:100100005B4F5B3E053E6B4F6B3E051C3E7C3E1CD1
:1001100005183C7E3C18051C577D571C051C5E7F4E
:100120005E1C0400183C1805FFE7C3E7FF04001835
:10013000241805FFE7DBE7FF0530483A060E0526E1
:100140002979292605407F05050705407F05253FBC
:10015000055A3CE73C5A057F3E1C1C0805081C1C40
:100160003E7F0514227F2214055F5F005F5F050656
:10017000097F017F046689956A056060606060059B
:1001800094A2FFA2940508047E04080510207E2096
:10019000100508082A1C0805081C2A0808051E1056
:1001A000101010050C1E0C1E0C0530383E383005A2
:1001B000060E3E0E06020000015F0307000705144D
:1001C0007F147F1405242A7F2A12052313086462F2
:1001D00005364956205003080703031C22410341FA
:1001E000221C052A1C7F1C2A0508083E08080380DB
:1001F000703005080808080802606005201008042F
:1002000002053E5149453E03427F40057249494936
:1002100046052141494D33051814127F1005274525
:10022000454539053C4A4949310541211109070530
:10023000364949493605464949291E011402806854
:10024000040814224105141414141404412214083F
:10025000050201590906053E415D594E057C121102
:10026000127C057F49494936053E41414122057FBF
:100270004141413E057F49494941057F090909013D
:10028000053E41415173057F0808087F03417F41C6
:10029000052040413F01057F08142241057F404071
:1002A0004040057F021C027F057F0408107F053E49
:1002B0004141413E057F09090906053E4151215E44
:1002C000057F091929460526494949320503017F59
:1002D0000103053F4040403F051F2040201F053FD0
:1002E0004038403F05631408146305030478040391
:1002F000056159494D43037F41410502040810201F
:100300000341417F05040201020405404040404092
:1003100003030708052054547840057F28444438D7
:1003200005384444442805384444287F053854544B
:10033000541804087E09020518A4A49C78057F08B7
:1003400004047803447D40044080807A047F1028B0
:100350004403417F40057C04780478057C0804044C
:100360007805384444443805FC182424180518241A
:100370002418FC057C08040408054854545424043B
:10038000043F4424053C4040207C051C2040201CA8
:10039000053C4030403C054428102844054C9090D2
:1003A000907C054464544C44030836410177034172
:1003B0003608050201020402053C2623263C051EE0
:1003C000A1A161120538424022780538545455598C
:1003D000052155557941052154547841052155543D
:1003E000784005205455794005183CA4E42405398B
:1003F000555555590538555455580539555454587F
:1004000003457C410402457D420401457C4005F0E2
:10041000292429F005F0282528F0047C54554507A7
:100420002054547C545408067C0A097F49490532FB
:100430004949493205304A484A3005324A4848302D
:10044000053A4141217A053A42402078049DA0A016
:100450007D053845444538053C4140413C053C2438
:10046000FF242405487E494366052B2FFC2F2B05CE
:10047000FF0929F62005C0887E0903052054547918
:100480004103447D41053048484A32053840402206
:100490007A047A0A0A72057D0D19317D052629290B
:1004A0002F280526292929260530484D40200538C2
:1004B00008080808050808080838052F10C8ACBA4D
:1004C000052F102834FA017B0508142A142205226E
:1004D000142A140805AA005500AA05AA55AA55AA67
:1004E0000500000000FF0510101010FF0514141483
:1004F00014FF051010FF00FF051010F010F0051498
:10050000141414FC051414F700FF050000FF00FF8D
:10051000051414F404FC05141417101F0510101F03
:10052000101F05141414141F0510101010F00500EE
:1005300000001F10051010101F1005101010F010F3
:1005400005000000FF10051010101010051010100D
:10055000FF1005000000FF14050000FF00FF05006C
:10056000001F1017050000FC04F4051414171017E1
:10057000051414F404F4050000FF00F70514141426
:100580001414051414F700F70514141417140510A7
:10059000101F101F05141414F414051010F010F09F
:1005A0000500001F101F050000001F1405000000BB
:1005B000FC14050000F010F0051010FF10FF0514EA
:1005C0001414FF1405101010101F05000000F01087
:1005D00005FFFFFFFFFF05F0F0F0F0F003FFFFFF66
:1005E00005000000FFFF050F0F0F0F0F05384444F3
:1005F0003844057C2A2A3E14057E020206060502BE
:100600007E027E02056355494163053844443C043B
:1006100005407E201E200506027E02020599A5E700
:10062000A599051C2A492A1C054C7201724C0530FB
:100630004A4D4D3005304878483005BC625A463D39
:10064000043E494949057E0101017E052A2A2A2ADC
:100650002A0544445F44440540514A44400540440F
:100660004A5140050000FF010303E080FF05080830
:100670006B6B0805361236243605060F090F060483
:10068000000018180400001010053040FF0101059B
:10069000001F01011E0500191D171205003C3C3CFE
:1006A0003C05FF818181FF05FFFFFFFFFF00000088
:1006B00000240027002A0000000000250028002B4D
:1006C00000000000002300260029000404040404A4
:1006D00004040402020202020203030303030301EF
:1006E00002040810204080010204081020010204C6
:1006F00008102000000008000201000003040700A9
:100700000000000000000000FC2CE22911241FBEA4
:10071000CFEFD8E0DEBFCDBF11E0A0E0B1E0EEED5D
:10072000F0E602C005900D92A633B107D9F725E097
:10073000A6E3B1E001C01D92AA36B207E1F713E0CB
:10074000C5E8D3E004C02197FE010E94122FC438EF
:10075000D107C9F70E94162A0C9462300C9400004D
:100760002F923F924F925F926F927F928F929F92C1
:10077000AF92BF92CF92DF92EF92FF920F931F93AF
:10078000CF93DF93CDB7DEB760970FB6F894DEBF97
:100790000FBECDBF3C019C012C5F3F4F3C872B8798
:1007A00040E050E06AE070E0C9010E9405151F8238
:1007B0001886B301665D7E4F7E876D8732E4332EE7
:1007C000AD85BE858C91BF81B81710F00C948F0F4A
:1007D0004B2E512CF3013B9EE00DF11D1124DF0146
:1007E000AF5BBF4F1C9284A595A58630910509F497
:1007F0004CC0059741F18FB7F89440917803509120
:10080000790360917A0370917B038FBF349CC001A0
:10081000359C900D11249A838983FC01E60DF71D08
:1008200084A195A1A6A1B7A1481B590B6A0B7B0B0C
:1008300080A591A5A0E0B0E0481759076A077B079B
:1008400008F460C01EC08FB7F894409178035091AF
:10085000790360917A0370917B038FBF84A195A186
:10086000A6A1B7A1481B590B6A0B7B0B82A593A5C8
:10087000A0E0B0E0481759076A077B0708F442C0B8
:10088000BACF83A181113EC008C081E09885982B22
:100890009887AF81AF5FAF8393CF2FB7F8948091E4
:1008A000780390917903A0917A03B0917B032FBFD5
:1008B00084A395A3A6A3B7A381E0DF01AF5BBF4FDD
:1008C0008C931A96CD90DC90C114D10471F0A9815B
:1008D000BA819196A60DB71DBA87A98784A595A55B
:1008E000009791F0069709F0DCC0349CF001359C2C
:1008F000F00D1124E60DF71D81E024A535A5263065
:10090000310521F280E0C2CFDF01A35BBF4FCD9262
:10091000DC9253012F81B2E42B9FA00CB11C112457
:1009200032E4A30EB11CD5018C91DF01AD5BBF4F4A
:100930000C91B8E00B9F80011124095F1F4F28E044
:10094000829F0019110911240F5F1F4FE12CF12C18
:10095000BF016D5A7F4F7A836983CF018E5A9F4FB3
:100960009E838D834F0195E5890E911CD6016D9173
:100970006D016623C9F0E981FA8120813181AD8161
:10098000BE814C9189859A850E94082090E0E80EEE
:10099000F91E892B59F3F6018081882339F3D4019C
:1009A0008C91E80EF11CE2CF349CF001359CF00DE7
:1009B0001124E60DF71DF7A6E6A685A996A98130B4
:1009C0009105B9F118F00297C9F05FC0DF01AD5B86
:1009D000BF4F8C9190E0019623E0880F991F2A95D4
:1009E000E1F79C012150310931AB20AB0E151F05F9
:1009F00070F18E199F0993AB82AB47C0D5018C91E2
:100A0000B8E08B9FC001112493AB82AB0E151F057C
:100A100060F4DF01AD5BBF4F8C9128E0829FC00185
:100A20001124079691AB80AB1AC00197E80EF91E0E
:100A30002AC00E151F05A8F4DF01AD5BBF4F8C91D6
:100A400038E0839FC0011124079691AB80ABD5019C
:100A50008C91B8E08B9FC001112493AB82AB80E0F6
:100A600015C0D5018C910E191F0916950795B8E090
:100A70008B9F000D111D112413AB02AB21E0E21A74
:100A8000F108E00EF11EF1AAE0AA81E0349CF00129
:100A9000359CF00D1124E60DF71D91E0892784ABFC
:100AA00093AF349CF001359CF00D1124E60DF71D39
:100AB00023AC222061F007A8F0ADE02D3197EC3196
:100AC000F10508F0A3C7EC5CFF4F0C94122F01ACAA
:100AD000F2ADE02D3197EC31F10508F097C7E05BFE
:100AE000FF4F0C94122F89859A850E94D016349C52
:100AF000F001359CF00D1124E60DF71D83C28985A8
:100B00009A850E947D1682C7422D61E002C0422D67
:100B100060E089859A850E94F21783C7422D61E0C3
:100B200002C0422D60E089859A850E94E61A79C745
:100B3000349C7001359CF00C112483010E0D1F1D97
:100B400068019CE2C90ED11CD8019C968D919C91A4
:100B50009D978230910561F45801B6E5AB0EB11C4A
:100B6000015B1F4FE6E5EE0EF11CE60CF71C4EC0D4
:100B70008230910520F0039709F464C041C1F6E585
:100B8000EF0EF11CB3016E0D7F1D89859A850E94C1
:100B9000F920882309F46EC389859A850E947D1601
:100BA000F801E95AFF4F11821082C2010196389E66
:100BB000F001399EF00D1124E60DF71D8081F8013A
:100BC000EC5BFF4F28E0829FC0011124918380835A
:100BD000D801D0968D919C91D19735969183808341
:100BE00046C4B70189859A850E94B420811105C049
:100BF000E5E0F0E0D601ED93FC93D5018C918111F5
:100C00000CC0F60180819181059739F0D5011C92C5
:100C1000F80180818111ECCFE4CF349CF001359C48
:100C2000F00D1124E60DF71D84A595A5059709F48F
:100C3000F8C6DF01A95ABF4F1D921C9283E090E0D5
:100C400095A784A7349C9001359C300D1124260D66
:100C5000371D3A832983690134E4C30ED11CD601C0
:100C60006D917C91E981FA81E75BFF4F20813181B1
:100C7000E981FA81ED5AFF4F7F0109811A81095AF2
:100C80001F4F6217730761F5A981BA81DC968C91B9
:100C9000882359F00190F081E02DD8018D919C912D
:100CA000E80FF91F4081409509C00190F081E02DC7
:100CB000D8018D919C91E80FF91F4081349CF0017F
:100CC000359CF00D1124E60DF71DFA83E98381A10F
:100CD00092A10E94D911E5E0F0E0A981BA81F5C5A1
:100CE0000190F081E02DD8018D919C91E80FF91FC2
:100CF0008081811104C0F6013183208331C0A98134
:100D0000BA81DC964C91DC97419591968D919C919E
:100D100092970E94D911F601608171816F5F7F4FB8
:100D200071836083A981BA81DC964C91F70120819F
:100D30003181D8018D919C91F901E80FF91F44236D
:100D400019F04081409501C04081349CF001359CF0
:100D5000F00D1124E60DF71D81A192A10E94D91179
:100D6000349CC001359C900D1124860D971DDC012B
:100D7000AC5BBF4F2D913C9111978C01075B1F4FCE
:100D8000F801408151812417350701F5B2016F5FE9
:100D90007F4F369EA001379E500D1124460D571DE2
:100DA000FA014081F8E04F9FA001112411965C9355
:100DB0004E9353964D915C9111974F5F5F4F4D93BA
:100DC0005C9321503109D8012D933C93349CF00160
:100DD000359CF00D1124E60DF71D9F01295A3F4F58
:100DE000AF014A5A5F4FDA018C9190E0D9012D9101
:100DF0003C912817390709F014C682E090E00FC62D
:100E000025E030E0C0C1349CF001359CF00D112488
:100E1000E60DF71D84A595A58130910508F45FC006
:100E20008430910590F0059709F059C080A991A9E7
:100E3000DF01A75BBF4F11969C938E9315978D93FF
:100E40009C9383E090E095A784A7349CF001359CA7
:100E5000F00D1124E60DF71D81A092A084AD88232A
:100E600021F0AA24AA94B12C02C0A12CB12C349C4C
:100E7000B001359C700D1124660D771D7A8369834E
:100E80007B0174E4E70EF11CC980DA8089E4C80EA6
:100E9000D11CA981BA81D296BA83A983F7010081B6
:100EA0001181602FC4010E942411282F30E02A15DF
:100EB0003B0509F0D1C5D6012D913C91E981FA811C
:100EC00040815181241735070CF4C6C5C90101972B
:100ED000F60191838083D7012D933C93DFCF349C1F
:100EE000F001359CF00D1124E60DF71D2BC5349C47
:100EF000F001359CF00D1124E60DF71D84A595A594
:100F00008430910560F4019768F4DF01AC5BBF4F5A
:100F10001D921C9283E090E095A784A703C00597DB
:100F200009F070C089859A850E947D1689859A8509
:100F30000E94D016C2010196389EF001399EF00D34
:100F40001124E60DF71D9080990C990C990C8824BA
:100F50008394349CB001359C700D1124660D771D6F
:100F60007E836D836D5B7F4F7A8369830D811E81E4
:100F70000C5B1F4FAD80BE8071E2A70EB11C222416
:100F80002394A981BA818C9190E0019673E0880F37
:100F9000991F7A95E1F7C92CD12CC816D9061CF5F2
:100FA000F501E080F180692DC7010E942411482FCE
:100FB00050E0D8018D919C91E7E0F0E0E81BF90B3F
:100FC000882031F002C055954795EA95E2F704C0B4
:100FD00001C0440FEA95EAF7B601C7010E94D91192
:100FE00082249394CECFD8018D919C911197019634
:100FF0008D939C93089709F014C525E030E0ED81AE
:10100000FE81C2C065E070E0B2C4349CF001359C42
:10101000F00D1124E60DF71D84A595A584309105EA
:1010200018F4019720F015C0059709F08BC4349C83
:10103000F001359CF00D1124E60DF71DDF01AC5BCE
:10104000BF4F81E090E08D939C9383E090E095A763
:1010500084A7C2010196389EF001399EF00D11243B
:10106000E60DF71D9080990C990C990C88248394B7
:10107000349CD001359CB00D1124A60DB71DBE8344
:10108000AD83AD5BBF4FBA83A9830D811E810C5B1D
:101090001F4FAD80BE80B1E2AB0EB11C2224239461
:1010A000E981FA81808190E0019663E0880F991FC1
:1010B0006A95E1F7C92CD12CC816D9060CF5D501D3
:1010C000ED90FC90692DC7010E942411482F50E03B
:1010D000882041F0F801008002C0440F551F0A9497
:1010E000E2F707C0D8010C9002C0559547950A94C5
:1010F000E2F7B601C7010E94D91182249394D0CFA0
:10110000F80180819181019691838083089709F08D
:1011100088C4E6E0F0E0AD81BE81D7C3349C800195
:10112000359C100D1124060D171DD8019C968D912C
:101130009C919D978430910580F48230910538F51B
:10114000009771F0019709F03FC0F801EC5BFF4F89
:1011500060817181CB01019665C00597C1F034C0F3
:10116000F801EC5BFF4F118210823596A985BA8594
:101170005F968C915F9790E091838083CD010E9470
:101180007D1621E030E0F80135A724A74AC4349C3D
:10119000F001359CF00D1124E60DF71D9F012C5B2D
:1011A0003F4FD9016D917C91CF01875B9F4FDC014F
:1011B0008D919C91861797070CF470C3CB01019613
:1011C000D9018D939C9351C0349CF001359CF00D56
:1011D0001124E60DF71D62C3349C8001359C100D6F
:1011E0001124060D171DD8019C968D919C919D97F9
:1011F0008430910518F4019718F01FC00597D1F5B8
:10120000E985FA85678D862F90E0349C8001359CB6
:10121000100D1124060D171DF801E75BFF4F918398
:10122000808335979183808389859A850E946C1687
:1012300089859A850E94D016F2C1F801EC5BFF4FB8
:101240006081718177FF0DC03596608189859A85AF
:101250000E946C1689859A850E947D1626E030E0F2
:1012600092CFCB0101979183808389859A850E94D3
:101270006C16D7C3E6E0F0E027C3349CF001359C40
:10128000F00D1124E60DF71D84A595A5823091057A
:1012900009F482C028F4009751F00197C1F0B3C25D
:1012A0008330910509F4C3C1059709F0ACC2349CA1
:1012B000F001359CF00D1124E60DF71DDF01AC5B4C
:1012C000BF4F1D921C9221E030E035A724A7349C2B
:1012D0008001359C100D1124060D171D780134E492
:1012E000E30EF11CD7018D919C91119701968D937E
:1012F0009C93C2010196389EF001399EF00D112495
:10130000E60DF71DB08128E0B29FF0011124FE83A5
:10131000ED83680198012D5B3F4F3A832983470194
:1013200058013CE3A30EB11C2224239451E2C50EC4
:10133000D11CA981BA818C9190E0019653E0880F6D
:10134000991F5A95E1F7ED81FE81E817F907D4F46A
:10135000D4012D913C91CF01837099278217930777
:101360005CF4F5014081422541956D817E81D60175
:101370008D919C910E94D911ED81FE813196FE8361
:10138000ED83D7CFD7018D919C91049709F049C384
:1013900082E090E0F80143C389859A850E947D161A
:1013A000222021F089859A850E94D016349C8001E4
:1013B000359C100D1124060D171D6801F4E4CF0EA5
:1013C000D11CD6018D919C91119701978D939C937F
:1013D000C2010196389EF001399EF00D1124E60DF0
:1013E000F71DB08128E0B29FF0011124FE83ED8348
:1013F000780198012D5B3F4F3A83298346015801BC
:101400003CE3A30EB11C2224239451E2E50EF11C0F
:10141000A981BA818C9190E0019643E0880F991FD1
:101420004A95E1F7ED81FE81E817F907D4F4D4017C
:101430002D913C91CF0183709927821793075CF41B
:10144000F5014081422541956D817E81D7018D91C5
:101450009C910E94D911ED81FE813196FE83ED832E
:10146000D7CFD6018D919C91892B09F0DAC283E008
:1014700090E090CF349CF001359CF00D1124E60DE6
:10148000F71D84A595A58230910509F464C038F054
:101490008330910509F4CBC0059709F0B4C1C201AE
:1014A0000196389EF001399EF00D1124E60DF71DCE
:1014B000208188E0289FB00111247A836983349CBD
:1014C0008001359C100D1124060D171D580173E481
:1014D000A70EB11C68018CE3C80ED11CD8019196EF
:1014E0007D01F501808190E0019633E0880F991F1E
:1014F0003A95E1F729813A81281739074CF5D60149
:101500009C906981992039F0F701808191810E9436
:101510002411809505C0D7018D919C910E942411C2
:10152000B981B0FD02C09AEA01C095E5482F492B68
:101530009110409569817A81F701808191810E94A3
:10154000D91129813A812F5F3F4F3A832983C9CF2F
:1015500082E090E066C089859A850E947D162220EF
:1015600021F089859A850E94D016C2010196389E85
:10157000F001399EF00D1124E60DF71DB08128E031
:10158000B29FF0011124FA83E983349C8001359CD9
:10159000100D1124060D171D5801F3E4AF0EB11CF8
:1015A00068012CE3C20ED11CB8016F5D7F4F7B0137
:1015B000D5018C9190E0019623E0880F991F2A9520
:1015C000E1F7E981FA81E817F9074CF5D6019C901B
:1015D0006981992039F0F701808191810E9424115D
:1015E000809505C0D7018D919C910E942411B981ED
:1015F000B0FD02C095E501C09AEA482F492B911031
:10160000409569817A81F701808191810E94D91189
:1016100029813A812F5F3F4F3A832983C9CF83E0E5
:1016200090E0D8019D969C938E939C97FAC18985F2
:101630009A850E947D16222009F4E7C089859A8543
:101640000E94D016E5C0349CF001359CF00D1124A9
:10165000E60DF71D84A595A58430910518F4019732
:1016600020F015C0059709F0CEC0E6E3F1E0119235
:10167000B1E0E134FB07D9F7349CF001359CF00D63
:101680001124E60DF71D83E090E095A784A7349C14
:101690008001359C100D1124060D171DF801EC5B1F
:1016A000FF4F118210828F010E94442E4B015C017A
:1016B0000E94442E69837A838B839C83F801C080C7
:1016C000D180FFEFCF1ADF0AD801CD92DC92C5019D
:1016D000B4012BE030E040E050E00E949B2E70E02F
:1016E000FB01EA5CFE4F7F01B08069817A818B81CA
:1016F0009C8128E030E040E050E00E949B2E8B2D42
:1017000090E0062E02C0959587950A94E2F780FD39
:1017100030C081E090E001C0880F6A95EAF7B82AEE
:10172000D701BC9289859A850E94D016349C6001AD
:10173000359CD00C1124C60CD71CF601EC5BFF4F76
:10174000FA83E98311821082C2010196389EF0016A
:10175000399EF00D1124E60DF71D9080990C990C1F
:10176000990C5601F3E4AF0EB11C21E2C20ED11C5C
:1017700027C038E8C31633E1D3060CF495CFC9CFA0
:10178000F60100811181692DC8010E942411A981EF
:10179000BA81ED91FC91EA5CFE4F222021F140815B
:1017A0004823B701C8010E94D911E981FA818081DB
:1017B000918101968B309105D1F091838083939430
:1017C000D5018C9190E00196B3E0880F991FBA95EE
:1017D000E1F7E92CF12CE816F90694F2E6E3F1E0E2
:1017E0002EE331E00CC09081492F4095D9CFA981DB
:1017F000BA811D921C92E3CF2E173F0721F08191F1
:101800008F3FD1F30EC1211003C086E090E002C0EB
:1018100085E090E0349CF001359CF00D1124E60D3C
:10182000F71DFDC0E981FA81EA5BFF4F80818F5F80
:101830008083082E000C990B29813A812F593F4F44
:10184000D9012C9130E0821793070CF01082C2016D
:101850000196389EF001399EF00D1124E60DF71D1A
:101860008081349CF001359CF00D1124E60DF71DAC
:10187000AF014C5B5F4FB8E08B9FC0011124BF01EB
:10188000615A7F4FDB012C91821B91090197DA018C
:101890002D913C912817390709F0C3C025E030E0AD
:1018A00073CC349C8001359C100D1124060D171D3E
:1018B000F80184A595A58430910508F431C10597F8
:1018C00009F470C1E5E0F0E0D8019D96FC93EE9339
:1018D0009C97A7C0E981FA81EA5BFF4F80818F5F07
:1018E0008083082E000C990B29813A812E593F4F95
:1018F000D9012C9130E0821793070CF01082349CB0
:10190000F001359CF00D1124E60DF71DAF014C5B85
:101910005F4F9F012D5B3F4FD9018C91B8E08B9FAA
:10192000C00111240796BF01605A7F4FDB012C9143
:10193000820F911D0196DA012D913C9128173907EC
:1019400009F06FC026E030E01FCC349CF001359CDC
:10195000F00D1124E60DF71D84A595A584309105A1
:1019600008F4DAC1059709F4DAC166E070E075A7FA
:1019700064A757C0422D60E002C0422D61E0898516
:101980009A850E9430174DC041E001C040E0622DB1
:1019900089859A850E94331944C041E001C040E026
:1019A000622D89859A850E946F183BC0422D60E0A8
:1019B00002C0422D61E089859A850E94CF1931C00D
:1019C000422D60E002C0422D61E089859A850E9427
:1019D000E62827C0222D41E002C0222D40E061E030
:1019E00089859A850E94461D1CC0222D41E002C0B7
:1019F000222D40E060E0F4CF422D61E002C0422D94
:101A000060E089859A850E94731C0BC0349CF001AC
:101A1000359CF00D1124E60DF71D86E090E095A7AA
:101A200084A7349CF001359CF00D1124E60DF71DC0
:101A300083AD882339F081E024A535A52530310513
:101A400009F480E0349CF001359CF00D1124E60D82
:101A5000F71D83AF0C947504349CF001359CF00D98
:101A60001124E60DF71DDF01A75BBF4F2D913C91BF
:101A70002F5F3F4F42A953A9241735070CF462CFBB
:101A8000ED5BFF4F208158E0259F90011124295FD5
:101A90003F4F021713073CF4B8016F5F7F4F482F89
:101AA000C4010E94D911349C8001359C100D112471
:101AB000060D171DD801DC964C91DC974195F80175
:101AC000EC5BFF4FFA83E9836081718191968D9180
:101AD0009C9192970E94D911E981FA8120813181EC
:101AE0002F5F3F4F31832083F801ED5BFF4F8081F3
:101AF00090E00196A3E0880F991FAA95E1F72817B7
:101B0000390709F08ECF3696808191819C01215052
:101B1000310931832083A981BA818D939C9381CF30
:101B2000019708F03FC089859A850E946B21D801F2
:101B3000A95BBF4F8D919C911197F801E75BFF4F17
:101B4000208131818217930724F42D933C93918354
:101B50008083349CF001359CF00D1124E60DF71DB7
:101B6000DF01A55ABF4F8D919C91892B09F4EACED4
:101B7000DF01AA5BBF4F1C929F012C5B3F4FCF013F
:101B80008D5B9F4FDC018C9190E00196A3E0880F64
:101B9000991FAA95E1F7D9018D939C9383E090E07A
:101BA00095A784A789859A850E94D016349C6001E8
:101BB000359CD00C1124C3018C0D9D1DFC01EC5BE8
:101BC000FF4FF88BEF87208131812150310931831C
:101BD0002083212C9C01215A3F4F3A832983FE8385
:101BE000ED83BC016D5B7F4F7A87698792012F5F20
:101BF0003F4F329E4001339E900C1124860C971C5F
:101C00005C017CE3A70EB11C8C010A5B1F4FDC0159
:101C1000A55ABF4F7D016C01B1E2CB0ED11CE98109
:101C2000FA814081241608F047C0822D90E0AD81F2
:101C3000BE816D917C91680F791FE985FA852081BD
:101C400030E02F5F3F4FE3E0220F331FEA95E1F7CB
:101C5000621773077CF5D4012C91B8E02B9F90019B
:101C600011246217730734F1F5012081222381F0DA
:101C7000D8012C912403F00111248E0F9F1FD7014E
:101C8000ED91FC91E80FF91FE4914E2F40950DC0A6
:101C9000F80120812403F00111248E0F9F1FD7012A
:101CA000ED91FC91E80FF91F4491F601808191813B
:101CB0000E94D9112394B3CFAF85B8890D911C919F
:101CC00001501109349CF001359CF00D1124E60DF2
:101CD000F71DFA83E9835F01F9E4AF0EB11CC980F7
:101CE000DA802CE3C20ED11CE980FA8031E2E30EE7
:101CF000F11CD5018D919C91081719070CF492CD18
:101D0000F60140814195B801D7018D919C910E94C7
:101D1000D91101501109EDCF019708F046C089850E
:101D20009A850E946B21349CF001359CF00D1124A2
:101D3000E60DF71DDF01A95BBF4F8D919C911197B7
:101D4000E75BFF4F208131818217930724F42D93A5
:101D50003C9391838083349CF001359CF00D1124D9
:101D6000E60DF71DDF01A35ABF4F8D919C91892B82
:101D700009F4E8CDC2010196389ED001399EB00D1C
:101D80001124A60DB71D8C91DF01AC5BBF4F38E06D
:101D9000839FC0011124019711969C938E931296F4
:101DA0001C9283E090E095A784A789859A850E947C
:101DB000D016349C6001359CD00C1124C3018C0DCD
:101DC0009D1DBC016C5B7F4F788B6F87DB012D9174
:101DD0003C9111972F5F3F4F2D933C93212CFC0199
:101DE000E05AFF4FFA83E9837E836D839C012D5B6C
:101DF0003F4F3A87298792012F5F3F4F329E400124
:101E0000339E900C1124860C971C5C013CE3A30EBE
:101E1000B11C8C010A5B1F4F675E7F4F7B016C0119
:101E200071E2C70ED11CA981BA814C91241608F029
:101E300046C0822D90E0ED81FE8160817181681B3A
:101E4000790BA985BA852C9130E02F5F3F4F53E085
:101E5000220F331F5A95E1F76217730774F5F401E7
:101E60002081F8E02F9F90011124621773072CF155
:101E7000D5012C91F801222379F020812403F0016F
:101E800011248E0F9F1FD701ED91FC91E80FF91FD0
:101E9000E4914E2F40950CC020812403F0011124C1
:101EA0008E0F9F1FD701ED91FC91E80FF91F449110
:101EB000F601808191810E94D9112394B4CFAF851E
:101EC000B8890D911C91041B1109349CF001359CBB
:101ED000F00D1124E60DF71DFA83E9835F01F9E4A3
:101EE000AF0EB11CC980DA802CE3C20ED11CE98090
:101EF000FA8031E2E30EF11CD5018D919C91081717
:101F000019070CF4E7CCF60140814195B801D701DF
:101F10008D919C910E94D91101501109EDCF41E0A2
:101F200050E06AE070E08B859C850E9405158885ED
:101F300060960FB6F894DEBF0FBECDBFDF91CF9194
:101F40001F910F91FF90EF90DF90CF90BF90AF90D7
:101F50009F908F907F906F905F904F903F902F90C9
:101F60000895FC01418550E0440F551F60E070E08A
:101F7000848595850C945B30BF92CF92DF92EF926F
:101F8000FF920F931F93CF93DF93EC0188858823F3
:101F9000B9F080914301882379F08FB7F89490913C
:101FA0004301913039F49DB3909342019DB39DBBA1
:101FB0008FBF02C08093420180E58CBD81E08DBD62
:101FC00060E08F810E94B4278885811102C0F12CC6
:101FD0002FC040E0242F30E0898590E0880F991FC2
:101FE00028173907D0F58C859D85FC01E20FF31F7A
:101FF00080818EBD00000DB407FEFDCF8EB54F5F12
:10200000E9CFB601002E02C0759567950A94E2F7F4
:1020100061708B2D0E94B42761E08E2D0E94B42741
:1020200060E08E2D0E94B4270150110950F7F394FF
:102030002F2D30E0898590E0880F991F28173907E8
:1020400060F48C859D85FC01E20FF31FC080EE805B
:10205000BD8007E010E0D12CD4CF61E08F810E94D9
:10206000B4278885882381F080914301882361F01B
:102070009FB7F8942091430180914201213019F4D7
:102080008DBB9FBF01C08FBFDF91CF911F910F917B
:10209000FF90EF90DF90CF90BF900895DF92EF9286
:1020A000FF920F931F93CF93DF93EC01E12CF12C60
:1020B00001E010E0CE010E94B10F98010E2C02C089
:1020C000220F331F0A94E2F760E0D12C71E07E0DFD
:1020D000898590E0462F50E0481759077CF5E9E0E4
:1020E0006E9FD0011124EA85FB85EA0FFB1FE08576
:1020F000F0E0E223F323EF2BF9F00197841B950B1B
:10210000880F991FEC85FD85E80FF91F70838A857C
:102110009B85A80FB91FAE0DBF1D8C91E985F0E01E
:102120003197E41BF50BEE0FFF1F4C855D85E40F27
:10213000F51F8183DD24D3946F5FCACFDD2019F0B2
:10214000CE010E94BC0F8FEFE81AF80A98E0E9165A
:10215000F10409F0AFCF80E0298530E0482F50E04E
:102160004217530754F4EA85FB8599E0899FE00DF7
:10217000F11D112410868F5FEFCFDF91CF911F915A
:102180000F91FF90EF90DF900895CF9378E05FEF8D
:102190004617D0F0A9E06A9F90011124DC011A963D
:1021A000ED91FC911B97E20FF31FDF01C72F1D92EA
:1021B000CA95E9F7DC011A96ED91FC911B97E20FA5
:1021C000F31F50876F5FE4CFFC012289222319F0AF
:1021D000CF910C944E10CF910895CF93DF93EC01E3
:1021E0008885882399F09FB7F894809141018823CE
:1021F00019F081508093410180914101811105C006
:102200008CB58F7B8CBD109243019FBF8A859B85C7
:102210000E94C42F8C859D85DF91CF910C94C42F93
:10222000962F9295692F6C7C862F86958695937351
:1022300024E0929FB0011124682B862F8A7A86951C
:102240006575660F862B0895462F477066956695CF
:1022500066950C94C5218F929F92AF92BF92CF92B8
:10226000DF92FF920F931F93CF93DF93CDB7DEB72B
:10227000A1970FB6F894DEBF0FBECDBF8C01DC0175
:1022800054968D919C9155978617970709F47EC0B7
:102290006115710511F468EF70E0F801758B648BBE
:1022A000168A88E0878B108E118E8FEF828F148EA6
:1022B000138EFB0184918634F1F43196E491E13080
:1022C000A9F4FB013296E491D8015996EC93599701
:1022D000FB013396E4915A96EC935A97FB0134969E
:1022E000E4915796EC9385E090E002C082E090E0A4
:1022F000F801948F838FD8015B962D913C915C9768
:1023000059968C91599790E05A964C9150E0F12C47
:102310004817590768F0FB01E20FF31FE491FE161E
:1023200008F4FE2EF0E031962E0F3F1F0196F0CFFD
:102330002F2D30E040E050E019A26E01B1E2CB0E4B
:10234000D11C8AE0882E912CA12CB12CCA01B90194
:10235000A50194010E94CD2E605DF60162936F018C
:10236000211531054105510589F7309761F001903C
:102370000020E9F73197AF014C195D09B6018CE7F0
:1023800093E00E94DE23D8015896FC9281E0A1964A
:102390000FB6F894DEBF0FBECDBFDF91CF911F9176
:1023A0000F91FF90DF90CF90BF90AF909F908F9054
:1023B0000895242F462F477033E0769567953A9518
:1023C000E1F70C94AA216F927F928F929F92AF9225
:1023D000BF92CF92DF92EF92FF920F931F93CF9312
:1023E000DF93CDB7DEB729970FB6F894DEBF0FBEE7
:1023F000CDBF8C01E62EF42E6901461708F41AC1F0
:10240000DC0152967C90529752961C9228303105EE
:1024100008F010C1F901E459FF4F0C94122FFC0190
:102420008389882351F0642F660F660F660F695FFA
:10243000C8010E942411B82E14C0C088D188C114CC
:10244000D10471F0642F660F660F660F695FC801D3
:102450000E942411482F60E070E08F2DF60109954D
:10246000B12CCE2CD12C8F2D0F2C000C990B8C1550
:102470009D05B4F040E050E06F2DC8010E94D821C6
:10248000AA24AA94AF0C47E06A2DC8010E94C52176
:10249000282F40E06F2DC8010E94AA21FA2CE3CF1B
:1024A000D8011E96ED91FC911F97309749F05396F5
:1024B0008C91811105C060E070E08E2D0995B82ED9
:1024C000B60143E0660F771F4A95E1F74B2D4CC0EC
:1024D000FC018389882341F0660F660F660FC801EF
:1024E0000E942411D82E12C0C088D188C114D104F2
:1024F00061F0660F660F660FC8010E942411482F15
:1025000061E070E08E2DF6010995D12C41E050E09C
:102510006E2DC8010E94D821CC24C394CE0C40E07B
:102520006C2DC8010E94C521282F47E06E2DC801DF
:102530000E94AA21EC2CFC1448F7D8011E96ED91BC
:10254000FC911F97309749F053968C91811105C0EB
:1025500061E070E08F2D0995D82EB8E0FB9EB001A8
:102560001124695F7F4F4D2DC8010E94D91159C0B8
:10257000C42ED12CA62EB12CC6018A199B0997FD19
:10258000019695958795812C39E0932E282D30E082
:1025900028173907A4F5F80162857385F901EA0D5A
:1025A000FB1D9E9EA0019F9E500D1124460F571F9C
:1025B000FA01DE011196692C01900D926A94E1F7FF
:1025C000F601E21BF30B9E9E90019F9E300D11249D
:1025D000FB01E20FF31FDA01492D01900D924A959C
:1025E000E1F7F801A285B385A20FB31FFE01319672
:1025F000292D01900D922A95E1F78394C7CF44E0ED
:1026000050E06E2DC8010E94D821E394FE14B8F763
:1026100008C0A6016E2DC8010E94D821E394FE14C3
:10262000C0F7D80152967C92772031F0C8010E9401
:102630004E1002C080E001C081E029960FB6F894E8
:10264000DEBF0FBECDBFDF91CF911F910F91FF90E5
:10265000EF90DF90CF90BF90AF909F908F907F9042
:102660006F900895CF92DF92EF92FF920F931F9396
:10267000CF93DF93E62EF12CFC01218530E0E216AA
:10268000F3060CF049C0EC01F9E06F9F80011124C2
:10269000C12CD12CEA85FB85E00FF11F808590E0ED
:1026A0000C2C02C0959587950A94E2F780FF27C00D
:1026B000CE010E94B10FE985F0E03197EE19FF09D4
:1026C000EE0FFF1F8C859D85E80FF91F81E08C0DB3
:1026D0008083EA85FB85E00FF11FEC0DFD1D8081F5
:1026E000E985F0E03197EE19FF09EE0FFF1F2C8509
:1026F0003D85E20FF31F8183CE010E94BC0F8FEF57
:10270000C81AD80AE8E0CE16D10421F66A857B857E
:10271000FB01E00FF11F1086DF91CF911F910F9108
:10272000FF90EF90DF90CF900895AF92BF92CF923D
:10273000DF92EF92FF920F931F93CF93DF93FC01F1
:102740008281A185C62FD0E0882309F451C0B0E072
:10275000CA17DB070CF0B5C0483008F0B2C028300B
:1027600008F0AFC0E284F38479E0679F5001112440
:102770003481A22FB0E0332329F087E090E08A1B58
:102780009B0B01C0CD01EA0CFB1C50E0332331F060
:1027900007E010E0E801C41BD50BAE014E0D5F1D34
:1027A000EA0138818E0D9F1DEC0138838285938567
:1027B000E501C80FD91F48858481882321F027E0CF
:1027C00030E02A1B3B0B81E090E0A0E0B0E004C0C9
:1027D000880F991FAA1FBB1F2A95D2F7842B8887C1
:1027E0008289882319F0CF010E94321381E06AC0E8
:1027F0009381992359F007E010E07801E41AF10879
:1028000031E001C0330FEA94EAF706C031E0042E4C
:1028100001C0330F0A94EAF7B0E0CA17DB070CF0E7
:1028200051C0483008F04EC0283008F04BC0D9E005
:102830006D9FA0011124C7E0D0E0C21BD10981E047
:1028400090E0A0E0B0E06C017D0104C0CC0CDD1C88
:10285000EE1CFF1CCA95D2F77C2D04C0880F991F6F
:10286000AA1FBB1F2A95D2F7182FC0948095C0E0ED
:10287000D0E0A285B385A40FB51FAC0FBD1FFC909F
:102880002F2D23239381222341F0992311F0272F09
:1028900001C0212F2F292C9307C0992311F09C2DC3
:1028A00001C0982F9F219C932196C830D10509F72C
:1028B00082859385DC01A40FB51F8FEF18968C934A
:1028C0008FCF80E0DF91CF911F910F91FF90EF901C
:1028D000DF90CF90BF90AF900895CF92DF92EF92AC
:1028E000FF920F931F93CF93DF93EC01D62EC42E4C
:1028F0007901461708F47DC02A3031050CF05EC01E
:10290000CE010E94B10F82E0E816F10401F140F41B
:10291000E114F10471F081E0E816F10489F046C099
:1029200083E0E816F10411F184E0E816F104B1F057
:102930003DC081E00115110509F080E09CE01CC05C
:10294000802F083011050CF087E09BE015C0802F28
:10295000003111050CF08FE09AE00EC081E0011506
:10296000110509F480E0819599E006C081E0011528
:10297000110509F480E09FE02D2D30E0E985F0E0BD
:102980003197E21BF30BEE0FFF1F4C855D85E40FC3
:10299000F51F9083E985F0E03197E21BF30BEE0F12
:1029A000FF1F2C853D85E20FF31F8183D394CD1447
:1029B00008F0A9CFCE010E94BC0F1DC02A303105FE
:1029C00021F02B30310571F016C081E00130110586
:1029D00009F080E08A8B0130110569F4CE010E9474
:1029E0004E1009C081E00130110509F080E08B8BA9
:1029F00002C080E001C081E0DF91CF911F910F9173
:102A0000FF90EF90DF90CF9008950F931F939B015D
:102A10008A01FC014185415060E00E946D141F91C4
:102A20000F9108951F93CF93DF93EC01888588233E
:102A300009F434C01FB7F89480914101811127C077
:102A4000E5EDF6E08491E9EEF6E09491E82FF0E010
:102A5000EE0FFF1FE355F94FA591B491EC91E923D7
:102A600021F461E08AE00E94B42761E08AE00E94DC
:102A7000E3278CB580618CBD8CB580648CBD61E032
:102A80008DE00E94E32761E08BE00E94E3278091C4
:102A900041018F5F809341011FBF08C061E08D81BC
:102AA0000E94E32761E08E810E94E32761E08F812D
:102AB0000E94B42761E08F810E94E3271F861E8653
:102AC000198A188A198529E0129FC00111240E94D1
:102AD0002C2F9B878A87812F90E0880F991F0E9457
:102AE0002C2F9D878C8768EF70E0CE010E942B1100
:102AF00040E050E063E070E0CE010E94051547E041
:102B000050E061E070E0CE010E94051547E050E022
:102B100062E070E0CE010E94051540E050E064E004
:102B200070E0CE010E9405154985415060E0CE015C
:102B30000E94C51040E050E060E070E0CE01DF91FF
:102B4000CF911F910C940515EF92FF921F93CF9395
:102B5000DF9374E4E72E71E0F72EC70140E220E036
:102B600030E0FC01E20FF31F5081533209F0408343
:102B70002F5F3F4F20313105A1F7409621E0843C83
:102B8000920769F780916C0390916D0354E0880F70
:102B9000991F5A95E1F78C5B9E4F20916E033091FF
:102BA0006F03FC01E20FF31F2EEF208320917003CF
:102BB00030917103F901EE0FFF1F60E070E0AEEF9E
:102BC00012161306ECF4AB014E0F5F1FEA01C85357
:102BD000DE4F88819981EA01C656DD4F44E0880FB7
:102BE000991F4A95E1F78C5B9E4F48815981EC0112
:102BF000C40FD51FA8832150310962507109E0CF5D
:102C00008091C4019091C50124E0880F991F2A95F5
:102C1000E1F78C5B9E4F2091C6013091C701FC010A
:102C2000E20FF31F2FE4208340912204415060E023
:102C300089E194E00E94C51010E0C0E0D0E0F70107
:102C4000EC0FFD1F8081803211F440E001C041E0B3
:102C5000BE01812F0E9487252196C031D10579F7C9
:102C60001F5F80E1E80EF11C183039F7DF91CF913A
:102C70001F91FF90EF9008950F931F93CF93DF93D1
:102C800000E110E0C8E0D0E00E94E92DB8010E9408
:102C9000FE2E9093C7018093C6010E94E92DBE01CC
:102CA0000E94FE2E9093C5018093C40124E0880FFA
:102CB000991F2A95E1F78C5B9E4F2091C6013091B8
:102CC000C701FC01E20FF31F80818032E9F6DF913A
:102CD000CF911F910F9108950F931F93FC01678F60
:102CE000062F10E022E030E042A161A180819181B5
:102CF0000E946D141F910F910895CF93DF93EC0103
:102D00004AA169A1461720F0888199810E94C510C7
:102D10008B8D882351F027E030E04AA169A188819A
:102D20009981DF91CF910C94E311DF91CF910895B8
:102D3000FC01918D228D892F90E0805C9F4F821B3A
:102D400091098F739927089580E090E0892B29F0ED
:102D50000E943B2481110C9400000895FC01848D95
:102D6000DF01A80FB11DA35ABF4F2C91848D90E0B5
:102D700001968F739927848FA689B7892C93A08990
:102D8000B1898C91837080648C93938D848D98131A
:102D900006C00288F389E02D80818F7D80830895AD
:102DA000CF92DF92EF92FF920F931F93CF93DF9317
:102DB000EC010E947D16CF84D8887E0185E3E80E61
:102DC000F11CB701CE010E94F9201FAA1EAA86019C
:102DD00089899A8908171907D4F18DA9282F30E01D
:102DE0004EA95FA94217530711F081110AC01DAA0D
:102DF0008EA5811104C0B701CE010E94B4201FAA84
:102E00001EAA8DA9882321F34B8D8EA99FA92AA9DB
:102E10003BA9442359F0AC014F5F5F4F5FAB4EAB12
:102E2000F901E80FF91F4081409509C0AC014F5FDF
:102E30005F4F5FAB4EABF901E80FF91F4081B8015E
:102E4000888199810E94D91101501109C1CFDF9168
:102E5000CF911F910F91FF90EF90DF90CF90089549
:102E6000FF920F931F93CF93DF93EC01F62E8B8588
:102E70009C85442309F457C08430910550F4019790
:102E800058F4CE010E946B2183E090E09C878B87F1
:102E900003C0059709F044C08B859C85059721F4F4
:102EA00083E090E09C878B87CE010E94D0160BA117
:102EB0001CA12DA188A599A5820F911D27FD9A958A
:102EC0000817190769F04B8D4195B80188819981E0
:102ED0000E94D9118DA1080F111D87FD1A95E9CF08
:102EE000FF2069F06BA17CA10617170741F04B8DFD
:102EF00081E048274195888199810E94D9114BA191
:102F00005CA19DA1892F990F990B28A539A5280FA0
:102F1000391F4217530709F056C025E030E051C071
:102F200085E090E057C08430910518F4019720F0B7
:102F30000AC0059709F04CC0CE010E946B2183E0C6
:102F400090E09C878B87CE010E94D0160EA11FA116
:102F50006BA17CA18DA1082E000C990B9B01280F61
:102F6000391F0217130769F04B8D4195B80188810D
:102F700099810E94D9118DA1080F111D87FD1A9505
:102F8000E7CFFF2079F028A539A5820F931F681796
:102F9000790741F04B8D81E04827419588819981DF
:102FA0000E94D9114BA15CA19DA1892F990F990B6A
:102FB00028A539A5280F391F4217530721F426E009
:102FC00030E03C872B87840F951F9CA38BA304C004
:102FD00086E090E09C878B87DF91CF911F910F91C6
:102FE000FF900895EF92FF920F931F93CF93DF937B
:102FF000EC01F62E8B859C854423F1F184309105FC
:1030000098F4019798F41CA21BA200E010E02BE0BA
:1030100030E04AA169A1888199810E946D1483E002
:1030200090E09C878B8702C0059719F5CE010E941E
:103030007D16CE010E94D0161BA1FF2021F093E047
:10304000E92EF12C03C082E0E82EF12C173048F471
:1030500097014AA169A1888199810E94E3111F5FAC
:10306000F5CF8BA19CA18730910551F525E030E08B
:1030700025C085E090E02AC08430910518F40197BE
:1030800018F008C0059701F51CA21BA283E090E090
:103090009C878B87F11003C023E030E002C022E060
:1030A00030E04AA169A1888199810E94E3118BA136
:1030B0009CA18730910521F426E030E03C872B87E6
:1030C00001969CA38BA304C086E090E09C878B872D
:1030D000DF91CF911F910F91FF90EF900895CF92C4
:1030E000DF92EF92FF921F93CF93DF93EC01D42EE8
:1030F0008B859C85662309F452C08430910560F469
:10310000019768F4CE010E946B211CA21BA283E0F0
:1031100090E09C878B8703C0059709F03DC0CE01E6
:103120000E94D0162BA13CA128303105A9F1EEA0B8
:10313000FFA081E090E001C0880F2A95EAF7182FE0
:10314000D11010952DA188A599A5820F911D27FD5D
:103150009A95E816F906E1F08B8DC880D9806E2D1E
:10316000882339F0C6010E942411412F4095842BF9
:1031700004C0C6010E9424118123482FB701C60153
:103180000E94D9118DA1E80EF11C87FDFA94DACFC7
:103190008BA19CA1019658C085E090E05AC0843074
:1031A000910518F4019720F00EC0059709F04FC063
:1031B000CE010E946B2187E090E09CA38BA383E06B
:1031C00090E09C878B87CE010E94D0168BA19CA19A
:1031D00097FD06C011E001C0110F8A95EAF701C002
:1031E00010E0EEA0FFA0D11010952DA188A599A503
:1031F000820F911D27FD9A95E816F906E1F08B8D57
:10320000C880D9806E2D882339F0C6010E94241110
:10321000412F4095842B04C0C6010E9424118123B4
:10322000482FB701C6010E94D9118DA1E80EF11CEB
:1032300087FDFA94DACF8BA19CA197FF04C026E00A
:1032400030E03C872B8701979CA38BA304C086E0CA
:1032500090E09C878B87DF91CF911F91FF90EF903B
:10326000DF90CF900895FF920F931F93CF93DF933A
:10327000EC01F42E8B859C85662309F442C08430D2
:10328000910550F4019750F4CE010E946B2183E028
:1032900090E09C878B8702C0059781F5CE010E9444
:1032A000D0162BA13CA188A599A52817390731F183
:1032B0000EA11FA18DA1082E000C990B48A559A5A0
:1032C000480F591F2BA13CA10417150709F458C03A
:1032D000F11004C00217130721F40AC002171307E4
:1032E00039F44B8D4195B801888199810E94D9119B
:1032F0008DA1080F111D87FD1A95DCCF85E090E0A8
:1033000046C08430910518F4019718F009C005975C
:10331000E1F5CE010E946B2183E090E09C878B87D2
:10332000CE010E94D0160EA11FA148A559A58DA1BE
:10333000282F880F330BBA01620F731F8BA19CA13A
:1033400006171707B1F0F11004C00817190721F488
:103350000AC00817190739F44B8D4195B8018881C7
:1033600099810E94D9118DA1080F111D87FD1A9511
:10337000DCCF8417950724F446E050E05C874B8748
:10338000820F931F9CA38BA304C086E090E09C87D0
:103390008B87DF91CF911F910F91FF900895EF924E
:1033A000FF920F931F93CF93DF93EC01062F8B8532
:1033B0009C85442309F479C08330910518F0039764
:1033C00061F170C06F85788989899A899B01281B72
:1033D000390BC90137FD01969595879501969CA3F8
:1033E0008BA30023B9F04B8D11E041274195681B59
:1033F000790B888199810E94D9114B8D4127419584
:1034000069897A898BA19CA1680F791F888199812C
:103410000E94D91183E090E0D0C08BA19CA197FDC0
:1034200041C0CE010E94D016E12CF12C6BA17CA1F1
:10343000E616F706C4F44B8D419569897A896E0DBD
:103440007F1D888199810E94D9114B8D41956F858F
:1034500078896E197F09888199810E94D9113FEF7F
:10346000E31AF30AE3CF615071097CA36BA3002335
:1034700009F4A5C077FDA3C04B8D11E0412741950C
:1034800089899A89680F791F888199810E94D91149
:103490004B8D412741956F8578898BA19CA1681B35
:1034A000790B7FC085E090E088C08330910549F1B9
:1034B00020F4019708F47FC003C0059709F07BC092
:1034C000CE010E947D16CE010E94D0161CA21BA226
:1034D000002399F04B8D11E0412741956F85788944
:1034E000888199810E94D9114B8D41274195698925
:1034F0007A89888199810E94D91183E090E09C8724
:103500008B872BA13CA16F85788989899A89AB012A
:10351000481B590BCA0157FD01969595879582174F
:1035200093070CF448C04B8D4195621B730B888147
:1035300099810E94D9114B8D419569897A898BA116
:103540009CA1680F791F888199810E94D9112BA1B4
:103550003CA12F5F3F4F3CA32BA3002381F16F853C
:10356000788989899A89AB01481B590BCA0157FD93
:10357000019695958795821793070CF14B8D11E075
:1035800041274195621B730B888199810E94D91153
:103590004B8D4127419569897A898BA19CA1680F40
:1035A000791F88819981DF91CF911F910F91FF90B1
:1035B000EF900C94D91186E090E09C878B87DF9187
:1035C000CF911F910F91FF90EF9008958F929F924E
:1035D000AF92BF92CF92DF92EF92FF920F931F9321
:1035E000CF93DF93EC01D62E8B859C85442309F481
:1035F000D3C08230910539F48E010B5C1F4F55E02A
:10360000E52EF12C28C08230910538F083309105E9
:1036100081F1049709F497C0BCC0BE016B5C7F4F79
:10362000CE010E94F920882309F441C11FAA1EAAD5
:1036300083E090E03EC1B801CE010E94B420811128
:1036400002C0FC86EB862DA98B859C85211108C0C4
:103650008530910529F01DAA8EA58111F2CFEBCFFF
:10366000059709F433C11FAA1EAA83E090E09C8746
:103670008B878DA98823B9F121E02D2530E04AA15F
:1036800069A1888199810E94E3114B8D2AA93BA9E8
:103690008EA99FA9442359F0AC014F5F5F4F5FABE8
:1036A0004EABF901E80FF91F4081409509C0AC010C
:1036B0004F5F5F4F5FAB4EABF901E80FF91F4081E1
:1036C000DD2031F069A128E0629FB001112407C01C
:1036D0006AA188E0689FB0011124695F7F4F8881EB
:1036E00099810E94D9118DA990E02EA93FA9281790
:1036F000390709F0EBC08EA5811103C082E090E08C
:10370000D8C02F853889DD2071F049A18D859E852F
:10371000B901681B790BCB01019678E0479F8019AE
:103720009109112408C08AA148E0849FC001112496
:103730000796821B930B9FAB8EAB181619064CF5A0
:1037400084E090E0B6C021E0262730E04AA169A1DC
:10375000888199810E94E3114B8D4195DD2031F0E4
:1037600069A188E0689FB001112407C06AA128E020
:10377000629FB0011124695F7F4F888199810E9407
:10378000D9118EA99FA901979FAB8EAB892B09F008
:103790009DC085E090E08DC08430910539F005979B
:1037A00009F085C084E090E09C878B8721E02D257F
:1037B00030E04AA169A1888199810E94E3114B8D73
:1037C0004195DD2031F069A188E0689FB0011124A6
:1037D00007C06AA128E0629FB0011124695F7F4F92
:1037E000888199810E94D9110AA110E0A9A0B12C69
:1037F0007801EA18FB084FEFE41AF40A43E0EE0CF4
:10380000FF1C4A95E1F78C8D9D8D009721F08E1558
:103810009F0508F47C010F5F1F4FDD2019F123E0A5
:10382000AA0CBB1C2A95E1F733E0000F111F3A9553
:10383000E1F745016401CA18DB0880169106A4F57A
:10384000682D888199810E94241190E02B8D21118F
:1038500003C020E030E002C02FEF30E02817390726
:1038600019F52AC083E0000F111F8A95E1F7015076
:10387000110993E0AA0CBB1C9A95E1F7C12CD12C3D
:103880000A151B058CF0602F888199810E942411F4
:1038900090E02B8D211103C020E030E002C02FEF1B
:1038A00030E02817390761F0CE14DF0478F086E0A5
:1038B00090E09C878B870AC06FEF861A960ABACF72
:1038C000015011097FEFC71AD70ADACFDF91CF91E4
:1038D0001F910F91FF90EF90DF90CF90BF90AF902E
:1038E0009F908F900895CF92DF92EF92FF920F9367
:1038F0001F93CF93DF93EC01D62E8B859C854423B9
:1039000009F45AC08430910518F4019720F013C0CF
:10391000059789F04EC0CE010E946B21D11003C0E3
:1039200081E090E002C08FEF90E09CA38BA383E046
:1039300090E09C878B87CE010E94D0162BA13CA1E2
:10394000D11003C08FEF90E002C080E090E08217BA
:10395000930779F10EA11FA12DA188A599A5820F2A
:10396000911D27FD9A9508171907E9F0CB8CE8807F
:10397000F980602FC701CC2021F00E94241180958E
:1039800002C00E9424114BA1D11040954823C110C0
:103990004095B801C7010E94D9118DA1080F111DD2
:1039A00087FD1A95D9CF8BA19CA1DD2009F456C0C3
:1039B0005BC085E090E05FC08430910518F401970A
:1039C00020F013C0059709F054C0CE010E946B216E
:1039D000D11003C08FEF90E002C081E090E09CA383
:1039E0008BA383E090E09C878B87CE010E94D0164A
:1039F0000EA11FA12DA188A599A5820F911D27FDBC
:103A00009A9508171907E9F0CB8CE880F980602FA8
:103A1000C701CC2021F00E942411809502C00E9491
:103A200024114BA1D11040954823C1104095B801F5
:103A3000C7010E94D9118DA1080F111D87FD1A958C
:103A4000D9CF8BA19CA1DD2069F08F3F910531F486
:103A500026E030E03C872B87DD2031F0880F991F6E
:103A6000816004C00097A1F3959587959CA38BA3D3
:103A700004C086E090E09C878B87DF91CF911F91F7
:103A80000F91FF90EF90DF90CF900895CF92DF924B
:103A9000EF92FF920F931F93CF93DF93EC01F62EDB
:103AA000C42E8B859C85222309F446C08430910561
:103AB00098F4019798F41CA21BA200E010E02BE000
:103AC00030E04AA169A1888199810E946D1483E048
:103AD00090E09C878B8702C0059759F5CE010E9424
:103AE0007D16CE010E94D0161BA1FF2021F093E08D
:103AF000E92EF12C03C082E0E82EF12CD12C1730F6
:103B000080F497014AA169A1888199810E94E311FB
:103B100096014AA169A1888199810E94E3111F5FE2
:103B2000EECF8BA19CA18730910599F525E030E07F
:103B30002EC085E090E033C08430910518F40197E1
:103B400018F008C0059749F51CA21BA283E090E07D
:103B50009C878B87F11003C023E030E002C022E095
:103B600030E04AA169A1888199810E94E31121E096
:103B70002C2530E04AA169A1888199810E94E31136
:103B80008BA19CA18730910521F426E030E03C8791
:103B90002B8701969CA38BA304C086E090E09C87B2
:103BA0008B87DF91CF911F910F91FF90EF90DF9066
:103BB000CF900895CF93DF9300D0CDB7DEB7698360
:103BC0001A82DC01ED91FC910084F185E02DBE01AB
:103BD0006F5F7F4F099581E090E00F900F90DF912C
:103BE000CF910895089580E090E00895FC01968DAE
:103BF000828DA4A5B5A591FD0AC0882319F08689F8
:103C0000978902C0808D918D0597B1F409C08823F2
:103C100019F08689978902C0808D918D059761F092
:103C200081E022A533A52A173B0709F080E086A78B
:103C30001197B5A7A4A70895CD01019695A784A7CC
:103C400081E011969C91911180E086A70895362F0E
:103C5000FB018E2F831B8417B8F48081982F9695D3
:103C6000292F2575982F9575990F922B892F869559
:103C70008695282F2373937354E0959FC0011124D8
:103C8000822B82958193E5CF0895242F269550E0CD
:103C9000460F571F362FFB018E2F831B821740F4D0
:103CA000808141505109DA019C9191938C93F4CF1A
:103CB0000895CF92DF92EF92FF920F931F93CF93CD
:103CC000DF93FC018381882351F087E090E0841B1F
:103CD000910991E001C0990F8A95EAF706C091E039
:103CE000042E01C0990F0A94EAF7218530E0A62F2F
:103CF000B0E0A217B3079CF5483088F522853385DC
:103D0000A90189E0689F400D511D1124BA01E48189
:103D100040E050E080E0A7E0B0E0C12CD12C76017B
:103D2000C394EE2321F09D01241B350B01C09A01A1
:103D3000EB01C20FD31F2881292359F09701860177
:103D4000042E04C0000F111F221F331F0A94D2F744
:103D5000802B4F5F5F4F4830510519F701C080E05D
:103D6000DF91CF911F910F91FF90EF90DF90CF9057
:103D70000895FC01A38129E0629FB00111242285EE
:103D80003385848150E0620F731FAA2379F0882362
:103D900031F087E090E09C01241B350BA901DB0189
:103DA000A40FB51F6C91CF010C941011882331F032
:103DB00087E090E09C01241B350BA901FB01E40F77
:103DC000F51F808108958F929F92AF92BF92CF92FC
:103DD000DF92EF92FF920F931F93CF93DF93EC014B
:103DE000162F042F89E0689F40011124AA84BB8408
:103DF000A80CB91C8C81C42ED12C882331F087E00B
:103E000090E07C01EC18FD0801C076018B818823CD
:103E100029F0622FCE010E94101101C0822FF501FE
:103E2000EE0DFF1D8083EA85FB85E80DF91D4085B9
:103E30008C81882381F027E030E02C193D0981E056
:103E400090E0A0E0B0E004C0880F991FAA1FBB1F3C
:103E50002A95D2F70BC081E090E0A0E0B0E004C06A
:103E6000880F991FAA1FBB1F0A95D2F7842B808742
:103E70008A89882321F0612FCE010E94321381E0CC
:103E8000DF91CF911F910F91FF90EF90DF90CF9036
:103E9000BF90AF909F908F9008954F925F926F92D6
:103EA0007F929F92AF92BF92CF92DF92EF92FF925A
:103EB0000F931F93CF93DF93DC0189E0689F80010C
:103EC000112487E090E0841B9109C12CD12C76014C
:103ED000C3942601370104C0440C551C661C771C92
:103EE0008A95D2F7942C04C0CC0CDD1CEE1CFF1C70
:103EF0004A95D2F77C2D342D30959C2D9095C7E0B6
:103F0000D0E047E0A42EB12CE22EF12CF501EC1B01
:103F1000FD0B67010E2E02C0D594C7940A94E2F7F8
:103F20001A964D915C911B9714962C9114971396A9
:103F30008C911397C0FE16C0222311F06E0101C0B0
:103F40006F01400F511F2111FE01E40FF51F208169
:103F5000882311F0892D01C0872FFA01EC0DFD1D7A
:103F6000822B15C0222311F06E0101C06F01400F9A
:103F7000511F2111FE01E40FF51F2081882311F04C
:103F8000832F01C0892FFA01EC0DFD1D8223808350
:103F9000219708F0BBCF1A968D919C911B97FC013D
:103FA000E00FF11F8FEF808752968C9152978823F4
:103FB00019F0CD010E94321381E0DF91CF911F9162
:103FC0000F91FF90EF90DF90CF90BF90AF909F90B8
:103FD0007F906F905F904F900895DC0112963C9116
:103FE00012971996EC91A62FB0E0F0E0332339F048
:103FF000AE17BF075CF4483048F40C94E31EAE17CC
:10400000BF0724F4483010F40C944D1F80E008954D
:10401000CF92DF92EF92FF920F931F93CF93DF9394
:104020006C01D62FC42F7901DC019F96ED91FC9194
:10403000D0973097C1F080818D1311C00180F2813B
:10404000E02DD081CD1708F4DC2F4D2F50E0BF01BB
:104050006F5F7F4FC7010E9452308D2F5BC003807E
:10406000F481E02DE6CFF60160AD71AD80819181E4
:104070000E942B11E114F10409F449C0F601A0815A
:10408000B18159968C915997D817C0F05A969C9146
:104090005A979D1798F05B960D911C915C97D817D5
:1040A00069F05496ED91FC915597E00FF11FE49162
:1040B0000E0F111D0F5F1F4F8F5FF1CF0F3FFFEFEF
:1040C0001F0741F44C2F50E060E070E0C7010E94F0
:1040D0005B301DC05496ED91FC915597E00FF11F98
:1040E0008491C81708F0C4912E2DC7010F5F1F4F90
:1040F000382F321B3C1768F45496ED91FC9155977C
:10410000E00FF11F3491FC013193CF01EFCF80E03C
:1041100001C08C2FDF91CF911F910F91FF90EF90F5
:10412000DF90CF9008951F93CF93DF93EC01142F6E
:104130002AA93BA949A90E940820112389F08823B4
:1041400079F090E02CA9921758F429A9821730F43D
:10415000EAA9FBA9E80FF11D10828F5F9F5FF2CFE4
:10416000DF91CF911F9108950F931F93CF93DF930A
:10417000EC018B01ECA5FDA541E08181811101C01D
:1041800040E06081CE010E949320F80180832E8D53
:104190009A8D21FD0BC0992319F02E893F8902C009
:1041A000288D398D2530310589F40AC0992319F0FD
:1041B0002E893F8902C0288D398D2530310531F097
:1041C0006AA97BA9482FCE010E94451E8E8D80FFD3
:1041D00007C06AA97BA9F8014081CE010E94271E71
:1041E000CE010E94F61D81E0DF91CF911F910F91CA
:1041F00008950F931F93CF93DF93EC01FB0110827F
:10420000EAA5FBA5FDA7ECA7309719F080818111E5
:1042100004C081E08EA780E059C01EA69E8D8A8DC5
:1042200091FD0AC0882319F08E899F8902C0888D6C
:10423000998D059781F409C0882319F08E899F898B
:1042400002C0888D998D059731F001900020E9F723
:104250003297FDA7ECA7ECA5FDA541E08181811176
:1042600001C040E08B016081CE010E949320F801E3
:1042700080832E8D9A8D21FD0BC0992319F02E89F4
:104280003F8902C0288D398D2530310589F40AC057
:10429000992319F02E893F8902C0288D398D253048
:1042A000310531F06AA97BA9482FCE010E94451E35
:1042B0008E8D80FF07C06AA97BA9F8014081CE01DD
:1042C0000E94271ECE010E94F61D81E0DF91CF9152
:1042D0001F910F910895FC01848995898230910581
:1042E00019F42189328902C02785308934A323A398
:1042F00037A326A38230910519F42785308902C09F
:104300002189328931A720A7029711F08FEF01C0D0
:1043100081E085A308951F93CF93DF93FC01A081D3
:10432000B18158961C9184A9180F81A9811770F446
:10433000EF0182A993A9009711F00E94C42F19AB35
:10434000812F90E00E942C2F9BAB8AABDF91CF9105
:104350001F910895DC0112963C9112971996EC91E9
:10436000A62FB0E0F0E0332339F0AE17BF075CF4BE
:10437000483048F40C944D1FAE17BF0724F4483062
:1043800010F40C94E31E80E00895FC0122812111B9
:104390000C94591EFC01218530E0E62FF0E0E21775
:1043A000F30724F4483010F40C94B91E80E008950B
:1043B0008F929F92AF92BF92CF92DF92FF920F9314
:1043C0001F93CF93DF93CDB7DEB728970FB6F8943E
:1043D000DEBF0FBECDBF4830510508F0DCC1FA0189
:1043E000F62E8C01EC58FF4F0C94122FDC01129624
:1043F0002C91B9E06B9FC00111242223D9F020E059
:1044000030E0F80143810284F385E02DE80FF91FC5
:10441000E20FF31F442329F0408150E05595479562
:1044200002C04081440F40832F5F3F4F2830310549
:1044300041F7A3C127E030E0D8011A96ED91FC9135
:104440001B97E80FF91FE20FF31F408141832150B2
:10445000310990F792C1FC018281F9E06F9F9001D0
:1044600011248823E9F080E090E0D80113964C9164
:1044700013971A96ED91FC911B97E20FF31FE80F2B
:10448000F91F442319F04081440F04C0408150E0DB
:1044900055954795408301968830910531F76DC158
:1044A00080E090E0F80142855385420F531FBC0124
:1044B0000196FA01E80FF91FE081DA01A60FB71F94
:1044C000EC938730910571F758C1DC0153968C91BC
:1044D00053971296DC9012978823B9F0DD2069F08B
:1044E00019968C9190E0262F30E02817390754F464
:1044F00040E0C8010E94B91E06C040E0C8010E9409
:10450000591E01C080E0898301C01982DD2079F045
:1045100020E0DD24D394D20E4D2D6F2DC8010E94D2
:1045200095132D2D2730A9F7298147E041C0B9E027
:10453000FB9EA001112487E090E0D8011A96ED912E
:10454000FC911B97E40FF51FE80FF91F2081220F44
:104550002083019790F7E8CFFC018389D2808823DC
:10456000B1F0DD2061F0818590E0262F30E0281742
:10457000390754F447E0C8010E94B91E06C047E05D
:10458000C8010E94591E01C080E0898301C01982C0
:10459000DD2099F028E0DD24DA94D20E4D2D6F2D28
:1045A000C8010E9495132D2DD110F5CF298140E02F
:1045B0006F2DC8010E94ED1FE0C0F9E0FF9EA00131
:1045C000112420E030E0D8011A96ED91FC911B9760
:1045D000E40FF51FE20FF31F808190E0959587951A
:1045E00080832F5F3F4F2830310569F7DFCFFC0113
:1045F0008281F9E06F9F600111248823D1F0812C22
:10460000912CD8011A96AD90BC901B97AC0CBD1C98
:10461000A80CB91CF5016081C8010E941011D501D8
:104620008C93BFEF8B1A9B0AE8E08E16910449F732
:10463000A4C020E030E067E070E0D8011A968D91C8
:104640009C911B978C0D9D1DFC01E20FF31FB08008
:10465000AB01421B530B840F951FDC018C918083AF
:10466000F801828593858C0D9D1DFC01E40FF51FDB
:10467000B0822F5F3F4F24303105F9F67EC0DC0158
:1046800012968C91B9E06B9F40011124882321F18F
:1046900020E030E067E070E0F80182859385880DC6
:1046A000991DFC01E20FF31FD080AB01421B530B9D
:1046B000840F951FDC018C918083F801828593859E
:1046C000880D991DFC01E40FF51FD0822F5F3F4F2D
:1046D0002430310509F751C0A12CB12CD8011A960C
:1046E000CD90DC901B97C80CD91CCA0CDB1CF601C2
:1046F0006081C8010E941011D6018C93BFEFAB1AE4
:10470000BB0AE8E0AE16B10449F737C09E012F5F3F
:104710003F4F5901490187E0D82E4D2D6F2DC8011B
:104720000E94C521D4018D934D01DA94BFEFDB12B5
:10473000F4CFD12CF50121915F014D2D6F2DC801D2
:104740000E94ED1FD394F8E0DF12F4CF16C029E0E9
:10475000629FA001112480E090E0D8011A96ED91AB
:10476000FC911B97E40FF51FE80FF91F208120959E
:10477000208301968830910581F7D8011A96ED9132
:10478000FC911B97B9E0FB9EE00DF11D11248FEF0A
:10479000808781E001C080E028960FB6F894DEBFE4
:1047A0000FBECDBFDF91CF911F910F91FF90DF9092
:1047B000CF90BF90AF909F908F900895CF92DF924F
:1047C000EF92FF920F931F93CF93DF936C017A01C7
:1047D0008B01C0E0D0E0CE15DF0581F0D8016D91EE
:1047E0008D01D601ED91FC910190F081E02DC60183
:1047F0000995892B11F02196EECF7E01C701DF913B
:10480000CF911F910F91FF90EF90DF90CF9008957F
:10481000FC01538D448D252F30E0842F90E0821BC6
:10482000930B541710F0CF96089501970895FC014B
:10483000918D828D981761F0828DDF01A80FB11DD7
:104840005D968C91928D9F5F9F73928F90E00895FB
:104850008FEF9FEF0895FC01918D828D981731F0B5
:10486000828DE80FF11D858D90E008958FEF9FEF09
:1048700008950E944D308CE793E00E94981621E045
:10488000892B09F420E0822F0895EF92FF920F9375
:104890001F93CF93DF93EC0181E0888F9B8D8C8DEC
:1048A000981305C0E889F989808185FD26C0F62E18
:1048B0000B8D10E00F5F1F4F0F731127E02E8C8DB3
:1048C000E8120CC00FB607FCFACFE889F98980819D
:1048D00085FFF5CFCE010E94AE16F1CF8B8DFE0184
:1048E000E80FF11DE35AFF4FF0829FB7F8940B8F4A
:1048F000EA89FB89808180620AC09FB7F894EE89BB
:10490000FF896083E889F98980818370806480836E
:104910009FBF81E090E0DF91CF911F910F91FF90B9
:10492000EF900895CF93DF93EC01888D8823C9F031
:10493000EA89FB89808185FD05C0A889B9898C91A8
:1049400086FD0FC00FB607FCF5CF808185FFF2CF43
:10495000A889B9898C9185FFEDCFCE010E94AE1652
:10496000E7CFDF91CF9108951F920F920FB60F926C
:1049700011242F933F934F935F936F937F938F9364
:104980009F93AF93BF93EF93FF938CE793E00E94C5
:10499000AE16FF91EF91BF91AF919F918F917F9153
:1049A0006F915F914F913F912F910F900FBE0F909C
:1049B0001F9018951F920F920FB60F9211242F93EC
:1049C0008F939F93EF93FF93E0918C03F0918D036E
:1049D0008081E0919203F091930382FD12C0908157
:1049E000809195038F5F8F7320919603821751F00A
:1049F000E0919503F0E0E458FC4F958F8093950388
:104A000001C08081FF91EF919F918F912F910F9025
:104A10000FBE0F901F901895833081F028F48130DD
:104A200099F08230A1F008958730A9F08830B9F06C
:104A30008430D1F4809180008F7D03C0809180000C
:104A40008F7780938000089584B58F7702C084B5F6
:104A50008F7D84BD08958091B0008F7703C08091D1
:104A6000B0008F7D8093B00008950F931F93FC01D9
:104A7000E65DFE4F7081671758F4DC0172E4679FB2
:104A8000A00DB11D112491969B965C934E939A971D
:104A90004081641750F4DC0142E4649FA00DB11D15
:104AA0001124D6963C932E93D5972081621750F40B
:104AB000DC0172E4679FA00DB11D112499961C932F
:104AC0000E9398972081621750F4DC0122E4629FD4
:104AD000A00DB11D11249B961C921E929A972081C5
:104AE000621790F442E4649FB0011124FC01E60FC8
:104AF000F71F21E030E030AF27AB12AE11AEFC0162
:104B0000E60FF71F15A614A61F910F9108958F9217
:104B10009F92AF92BF92CF92DF92FF920F931F931B
:104B2000CF93DF93F82EEB0193E0D695C7959A9536
:104B3000E1F7DE01BB278091220490E0A817B907B6
:104B40000CF07BC187E0C82ECF1408F476C19B011E
:104B50002770332780911B048090230490902404B5
:104B600070911D0460911C04442309F484C08823BF
:104B700009F441C089E08A9F80018B9F100D1124A8
:104B80004F2D50E0772331F087E090E05C01A41ACC
:104B9000B50A01C05A01080D191D772331F087E0CD
:104BA00090E0FC01E41BF50BAF01F801E40FF51FE9
:104BB0009081662381F0E7E0F0E0E21BF30B41E037
:104BC00050E060E070E004C0440F551F661F771F7F
:104BD000EA95D2F70CC041E050E060E070E0022EB0
:104BE00004C0440F551F661F771F0A94D2F7F801BF
:104BF000EA0DFB1D3EC089E08A9F80018B9F100D4E
:104C00001124772331F087E090E06C01C21AD30AB7
:104C100001C06901080D191D772329F087E090E094
:104C2000821B930B01C0C901F801E80FF91F9081A5
:104C3000662381F0E7E0F0E0EF19F10941E050E090
:104C400060E070E004C0440F551F661F771FEA95AF
:104C5000D2F70CC041E050E060E070E00F2C04C0DF
:104C6000440F551F661F771F0A94D2F7F801EC0D09
:104C7000FD1D492B87C0882309F443C089E08A9F22
:104C800080018B9F100D11244F2D50E0772329F0C8
:104C900087E090E0841B950B01C0CA01080D191D27
:104CA000772331F0E7E0F0E06F01C41AD50AA601DE
:104CB000F801E40FF51FF081662389F047E050E02A
:104CC0006A01C21AD30A41E050E060E070E004C01B
:104CD000440F551F661F771FCA94D2F70CC041E0DE
:104CE00050E060E070E0022E04C0440F551F661FC4
:104CF000771F0A94D2F74095080F191F4F23F80128
:104D000041C089E08A9F80018B9F100D1124772379
:104D100031F0E7E0F0E05F01A21AB30A01C05901E7
:104D2000080D191D772329F087E090E0821B930B73
:104D300001C0C901800F911FFC018081662389F0A9
:104D400047E050E06A01CF18D10841E050E060E050
:104D500070E004C0440F551F661F771FCA94D2F736
:104D60000CC041E050E060E070E00F2C04C0440F44
:104D7000551F661F771F0A94D2F74095F501E00F83
:104D8000F11F4823408350911B048091230490918C
:104D9000240440911D04552341F129E02A9FF0018C
:104DA0002B9FF00D1124E80FF91F5085442381F04B
:104DB00027E030E02F19310981E090E0A0E0B0E079
:104DC00004C0880F991FAA1FBB1F2A95D2F70BC0DA
:104DD00081E090E0A0E0B0E004C0880F991FAA1F16
:104DE000BB1FFA94D2F7852B1DC059E05A9FF001E2
:104DF0005B9FF00D1124E80FF91F6085442331F00B
:104E000047E050E06A01C21AD30A960181E090E0BF
:104E1000A0E0B0E004C0880F991FAA1FBB1F2A950D
:104E2000D2F7862B808710912B04112341F06C2F31
:104E300089E194E00E94321303C010E001C011E048
:104E4000812FDF91CF911F910F91FF90DF90CF9035
:104E5000BF90AF909F908F900895CF93DF93282FAE
:104E600030E0F901ED50F94F8491F901E152F94F29
:104E7000D491F901E553F94FC491CC2391F08111FC
:104E80000E940C25EC2FF0E0EE0FFF1FEF53F94FBF
:104E9000A591B491EC91ED2381E090E021F480E0C4
:104EA00002C080E090E0DF91CF9108950F931F93AF
:104EB000CF9382E00E942D27892B09F451C0809165
:104EC0006005882381F01092900410928F0460E0B6
:104ED00070E080915704909158040E942B1187E54F
:104EE00094E00E948B2180916005823080F01092C6
:104EF000D2041092D10460E070E080919904909106
:104F00009A040E942B1189E994E00E948B2104E10C
:104F100010E021E030E04EE251E061E086E394E011
:104F20000E94352521E030E042E351E060E086E375
:104F300094E00E943525C1E080916005882349F006
:104F40008091620490916304069709F4B2CFC0E0A7
:104F500002C0C111AECF86E394E00E94B003ECCF53
:104F6000CF911F910F9108951F93CF93DF93282F17
:104F700030E0F901ED50F94F8491F901E152F94F18
:104F8000D491F901E553F94FC491CC23C1F0162F08
:104F900081110E940C25EC2FF0E0EE0FFF1FE95469
:104FA000F94FA591B4919FB7F894111104C08C9159
:104FB000D095D82302C0EC91DE2BDC939FBFDF910C
:104FC000CF911F910895CF93DF9390E0FC01E152C0
:104FD000F94F2491FC01E553F94F8491882361F145
:104FE00090E0880F991FFC01E355F94FC591D491CA
:104FF000FC01E954F94FA591B491611109C09FB723
:10500000F8948881209582238883EC912E230BC00D
:10501000623061F49FB7F8948881322F30958323F2
:105020008883EC912E2B2C939FBF06C08FB7F894EA
:10503000E8812E2B28838FBFDF91CF9108953FB752
:10504000F8948091620590916305A0916405B091F8
:10505000650526B5A89B05C02F3F19F00196A11D37
:10506000B11D3FBFBA2FA92F982F8827820F911DFE
:10507000A11DB11DBC01CD0142E0660F771F881F45
:10508000991F4A95D1F708951F920F920FB60F926C
:1050900011242F933F938F939F93AF93BF9380914E
:1050A000780390917903A0917A03B0917B033091BA
:1050B000610523E0230F2D3720F40196A11DB11DBA
:1050C00005C026E8230F0296A11DB11D209361059E
:1050D0008093780390937903A0937A03B0937B0332
:1050E0008091620590916305A0916405B09165057A
:1050F0000196A11DB11D8093620590936305A09355
:105100006405B0936505BF91AF919F918F913F91D9
:105110002F910F900FBE0F901F901895CF92DF9296
:10512000EF92FF920F931F93CF93DF937C016B015C
:10513000EA01CA0101960E942C2F8C010097B1F060
:10514000AE01B6010E945230F801EC0FFD1F108233
:10515000D701ED91FC910084F185E02DB801C701E4
:105160000995C8010E94C42FCE0102C080E090E0E2
:10517000DF91CF911F910F91FF90EF90DF90CF9033
:105180000895EF92FF920F931F93CF93DF937C01CB
:10519000EB01FC0125A936A900E010E0AB0160E0BD
:1051A0000E943525C7010E94B0038111FBCFFE018B
:1051B00001900020E9F7CF0101978C1B9D0BDF9137
:1051C000CF911F910F91FF90EF900895CF92DF92B2
:1051D000FF920F931F93CF93DF93EC01F62E8B85F5
:1051E0009C85442309F462C08330910518F003972D
:1051F000F9F059C01CA21BA2CE010E947D16FF200F
:1052000099F04B8D11E0412741956F857889888110
:1052100099810E94D9114B8D4127419569897A89DD
:10522000888199810E94D91183E090E09C878B87C7
:10523000CE010E947D16CE010E94D01609891A89DE
:105240008F859889801B910B97FD01966C01D594F1
:10525000C7948BA19CA1C816D9062CF1080F191F61
:105260000F5F1F4F6F8578898BA19CA19B01281B25
:10527000390B0217130744F44B8D4195B80188810F
:1052800099810E94D911ECCF01969CA38BA3FF209A
:1052900009F490C0C816D9060CF48CC04B8D11E0EF
:1052A0004127419569C085E090E082C08330910537
:1052B000D1F120F4019708F479C003C0059709F0F3
:1052C00075C08F85988929893A89821B930B97FD30
:1052D0000196959587959CA38BA3CE010E947D1680
:1052E000CE010E94D016FF20D9F04B8D11E041274E
:1052F00041956F8578898BA19CA1681B790B88816A
:1053000099810E94D9114B8D4127419569897A89EC
:105310008BA19CA1680F791F888199810E94D91166
:1053200083E090E045C08BA19CA197FD3FC04B8DD1
:1053300041956F857889681B790B888199810E94D6
:10534000D9114B8D419569897A898BA19CA1680FF0
:10535000791F888199810E94D9118BA19CA1019705
:105360009CA38BA3FF2031F197FD24C04B8D11E04E
:10537000412741956F857889681B790B88819981D0
:105380000E94D9114B8D4127419569897A898BA15A
:105390009CA1680F791F88819981DF91CF911F911E
:1053A0000F91FF90DF90CF900C94D91186E090E0A0
:1053B0009C878B87DF91CF911F910F91FF90DF909A
:1053C000CF9008950F931F93CF93DF9389E194E0DB
:1053D0000E94ED1084E291E09093370480933604AC
:1053E00087E594E0892B41F48AE394E0DF91CF9143
:1053F0001F910F910C94ED10CDE1D5E08FA598A9E8
:10540000009739F0FC01038114810E94C42FC80168
:10541000F7CF8AA99BA9009711F00E94C42FC2540C
:10542000D109F4E0C531DF0749F7DECF789484B5C0
:10543000826084BD84B5816084BD85B5826085BD90
:1054400085B5816085BD80916E00816080936E001E
:105450001092810080918100826080938100809110
:1054600081008160809381008091800081608093C1
:1054700080008091B10084608093B1008091B00081
:1054800081608093B00080917A00846080937A007C
:1054900080917A00826080937A0080917A008160A6
:1054A00080937A0080917A00806880937A001092CD
:1054B000C100E0918C03F0918D03C2E0C083E091C4
:1054C0008803F09189031082E0918A03F0918B03A5
:1054D0008FEC808310929403E0919003F0919103FC
:1054E00086E08083E0918E03F0918F03808180615C
:1054F0008083E0918E03F0918F03808188608083A8
:10550000E0918E03F0918F03808180688083E09129
:105510008E03F0918F0380818F7D808389E194E0F9
:105520000E9412158AE394E00E941215C093600550
:10553000C0E0D2E40AE314E080916005C81770F47B
:10554000DC9FC0011124FC01EA5CFB4F12A301A304
:10555000895A9B4F0E948B21CF5FEECF813051F44F
:1055600090915F058FEF890F891720F410927804CE
:105570008093790480E092E42AE030E04091600575
:10558000841748F4989FF0011124E95AFB4F3087A3
:1055900027838F5FF3CF80915E0490915F044AE090
:1055A000489F9001499F300D112480E092E4409182
:1055B0006005841720F0C0E012E4D1E015C0989F88
:1055C000F0011124E95AFB4F328721878F5FEFCF1B
:1055D0001C9FC0011124FC01E557FB4FD083895A61
:1055E0009B4F0E948B21CF5F80916005C81780F38D
:1055F00080E092E408C0989FF0011124E95AFB4F23
:10560000158E148E8F5F209160058217A0F380E0C5
:1056100022E490916005891748F4289FF001112435
:10562000E95AFB4F158A148A8F5FF3CFE6E3F4E063
:1056300080E021E030E0891741F030AF27AB12AEB7
:1056400011AE8F5FEE5BFF4FF6CF10928204109287
:10565000810480E092E420916005821718F0C0E098
:10566000D2E408C0989FF0011124E95AFB4F138E31
:105670008F5FF1CF80916005C81750F4DC9FC001A7
:10568000112467E0895A9B4F0E946C16CF5FF2CFBE
:1056900060E070E08AE394E00E942B1162E082E017
:1056A0000E94E32762E083E00E94E32762E084E057
:1056B0000E94E32762E085E00E94E32780E022E485
:1056C000909160058917C8F080915F05823090F055
:1056D000992301F11092780421E020937904843019
:1056E000A0F0923038F082E08093BA0483E0809397
:1056F000BB040BC0992371F008C0289FF00111244E
:10570000E95AFB4F138E8F5FDBCF61E087E594E0B2
:105710000E946C1680916005823028F061E089E972
:1057200094E00E946C1648E0242E312CC4E0D0E0B6
:1057300053E0C52ED12C02E010E0EE24E394F12CCE
:105740000E94562780917703811105C00E94562739
:1057500021E0209377031092760310927503109244
:10576000710310927003109274032FB7F894809114
:10577000780390917903A0917A03B0917B032FBFB6
:105780000E94EE2D30926F0320926E03D0936D0332
:10579000C0936C03109273031092720344E451E0BF
:1057A00020E030E080E090E0FA01E80FF91F2115D9
:1057B000310541F02730310529F0009719F08F307D
:1057C000910519F463E2608302C0A0E2A083019610
:1057D0008031910549F72F5F3F4F405F5F4F283081
:1057E000310501F70E943C160E94A41582E00E9438
:1057F0002D27019729F0F0927303E09272031DC0E8
:1058000085E00E942D27019729F0109373030093E0
:10581000720313C084E00E942D27019729F0D092D3
:105820007303C092720309C083E00E942D27019781
:1058300021F0D0937303C093720380916E03909113
:105840006F0390939B0280939A0220916C03309196
:105850006D033093C9012093C801409172035091A8
:1058600073034130510519F4215031090AC0423007
:10587000510511F401970EC04330510539F42F5FE3
:105880003F4F30936D0320936C0308C044305105A3
:1058900029F4019690936F0380936E0360916E03D9
:1058A00070916F03CB0102970C9740F4E0916C0369
:1058B000F0916D03CF010297049720F0B1E0B0930F
:1058C00074034CC08091C6019091C7016817790795
:1058D000E1F48091C4019091C501E817F907A9F49A
:1058E000809175039091760344969093760380930C
:1058F00075030E943C16809170039091710301968C
:10590000909371038093700329C0809170039091EC
:105910007103909074033C01660C771C40E050E0EA
:1059200018161906CCF49A01260D371DD901A65672
:10593000BD4FAD90BC906A157B0551F428533E4F86
:10594000D9012D913C91E217F30711F49924939416
:10595000019742505109E4CF9092740380917003F3
:1059600090917103FC01EE0FFF1FDF01A656BD4FA2
:10597000E853FE4F12973297181619066CF40197E8
:105980002D913C91119713963C932E931297208161
:10599000318133832283EECF0E94A4150E941F28F9
:1059A0004B015C0188EC482E512C612C712C0E941B
:1059B0001F28DC01CB0188199909AA09BB09883E77
:1059C0009340A105B10598F3B1E04B1A5108610865
:1059D000710828EE820E23E0921EA11CB11C411416
:1059E00051046104710419F780917403882309F448
:1059F000FDCE0E94A416A4CE10927F0310927E03C7
:105A000088EE93E0A0E0B0E0809380039093810360
:105A1000A0938203B093830382E191E090937D038E
:105A200080937C0385EC90E09093890380938803B6
:105A300084EC90E090938B0380938A0380EC90E059
:105A400090938D0380938C0381EC90E090938F036F
:105A500080938E0382EC90E0909391038093900367
:105A600086EC90E0909393038093920310929503B9
:105A70001092960310929703109298031092390493
:105A80001092380484E291E09093370480933604B6
:105A900010923F04109240048AE08093410481E018
:105AA0008093420494E09093430480934C0423E059
:105AB00030E030933B0420933A0480933C041092EE
:105AC0003D0410923E04E2E6F4E026E030E091E08E
:105AD00031832083128A118A138A15A214A216A276
